:04000000FEEF17F008
:1022500001011E0E936EF19EE00E8112120052ECEF
:1022600011F029EC11F028EC13F0B5EC11F012008C
:10227000046E000E016E03507AEC11F0010E016E37
:0822800004507AEC11F0120089
:102289004F4E00474E004731004732004733004761
:102299003400473500475200434C00C08EC09AC0F5
:1022A90088C096C090C082C094C292C19AC198C495
:1022B9006AC36AC28012002FEC11F0F20E036E2F6E
:1022C9000E046E800E056E82EC12F0E90E036E2F7D
:1022D9000E046E880E056E82EC12F0E4EC13F07BAE
:1022E900EC13F062EF11F0FEEF17F0026E01B0800F
:1022F900EF11F083EF11F0828284EF11F0829202E4
:10230900C083FF82848294958E82808292828482A5
:102319009483BE92EF11F094EF11F08BEF11F082DC
:1023290090959E120001C003F0070E0316050E04D6
:102339006ED8900336042E9DEF11F003500F014221
:102349006F01C003F002C004F0D89004320332D800
:102359009004320332D890043203320350416F1291
:1023690000939493861F0E6F166F8E800E6E18D889
:10237900A4C1EF11F0C3EF11F0BAEF11F0776AE1E0
:102389000E706E1B0E716E030E726E0D01D46B1FF3
:102399000E6F166F50606A608A608C1200076E07B4
:1023A900C003F0D8900336D8900336C250C30B034C
:1023B90010C26EC282C2B2E4EF11F0E6EF11F0DF93
:1023C900EF11F0C350C4CF03F0046A03C004F00353
:1023D9006A0310056E0450066E05C001F006C002BE
:1023E900F01200890EF66E220EF76E000EF86E00DE
:1023F900EE60F010EE1BF00900F5CFEEFFE550E1BD
:1024090050FAE1500EF66E220EF76E000EF86E09C4
:1024190000F5CF4DF00900F5CF4EF000EE34F0197C
:102429000EEE6AE806FDE1000EF86E000160EF119C
:10243900F003500410D8B424EF12F026EF12F04A3A
:10244900EF12F0010E056E2EEF12F0D8900336044C
:1024590036052A04AE33EF12F035EF12F02AEF12E7
:10246900F00350015C04500258D8A03EEF12F0402E
:10247900EF12F044EF12F00350015E0450025AD8F3
:102489009004320332052E35EF12F001C001F0023B
:10249900C002F01200026E0250D8A456EF12F05892
:1024A900EF12F05BEF12F0015081EF12F00204D845
:1024B900A461EF12F063EF12F080EF12F00128D857
:1024C900B469EF12F06BEF12F076EF12F04D50D8BD
:1024D900B471EF12F073EF12F076EF12F04D6A5803
:1024E900EF12F00128D8A47CEF12F07EEF12F080F1
:1024F900EF12F0010E4D6EFF0E1200000E016E0577
:10250900507AEC11F09FEF12F0010E016E03C0F644
:10251900FF04C0F7FFF86A050EF76403D00800F559
:102529005005D0F6CFE1FFF7CFE2FFE7507AEC1183
:10253900F0034A042A03C0F6FF04C0F7FFF86A054E
:102549000EF76403D00800F55005D0F6CFE1FFF788
:10255900CFE2FFE7500009D8A4B5EF12F0B7EF12A8
:10256900F089EF12F012000F01436B446B05C001B3
:10257900F006C002F097EC11F008C045FF460E0CBA
:102589006E0F0E0D6E0F6A000E0E6EDAEF12F00767
:10259900500E24D96EDA6A0E500C24E16E0F500DDC
:1025A90020E26EDFCFE7FF0E4A0F2A0850096E0AB4
:1025B9006A09500E5C0F50800A0B6E0A50800A0B94
:1025C90058D8A0EAEF12F0ECEF12F0CCEF12F00FAE
:1025D9000140871200066A000E056E03500410D8E8
:1025E900B4F9EF12F0FBEF12F023EF13F0010E072D
:1025F9006E03EF13F0D89003360436072A04AE08A9
:10260900EF13F00AEF13F0FFEF12F0D8900536063A
:10261900360350015C04500258D8A016EF13F01885
:10262900EF13F01DEF13F00350015E0450025A0539
:1026390080D89004320332072E0AEF13F005C00147
:10264900F006C002F01200956A9450F80B946E825D
:1026590090C30E036ECD0EE82EFED7032EFCD700D5
:1026690000000E016E330E7AEC11F01B0E036E9E04
:102679000EE82EFED7032EFCD700D0000E016E33D4
:102689000E7AEC11F0A60EE82EFED700D0000E014E
:102699006E330E7AEC11F000D000D00000000E016C
:1026A9006E020E7AEC11F0A60EE82EFED700D000CD
:1026B9000E016E380E7AEC11F0A60EE82EFED70048
:1026C900D0000E016E010E7AEC11F0040E036E3E7D
:1026D9000EE82EFED7032EFCD7000E016E0C0E7AE3
:1026E900EC11F0A60EE82EFED700D012004DEC1426
:1026F900F0466E46C001F0010E4FEC12F0456E45F2
:1027090004D8A48AEF13F08CEF13F097EF13F007B6
:102719000E426092EF13F094EF13F0B6EF13F0420C
:102729002AB6EF13F0040E4518D8A49EEF13F0A0B3
:10273900EF13F0ABEF13F04250D8B4A6EF13F0A8A3
:10274900EF13F0B6EF13F04206B6EF13F0070E459C
:1027590018D8A4B2EF13F0B4EF13F0B6EF13F008E2
:102769000E426E4250030DF350600FD96EDA6ADFE4
:1027790050476E4250030DF350610FD96EDA6ADF8C
:1027890050486E496A470E036E046AC80E056E8288
:10279900EC12F0066A200E056E470E076E020E084F
:1027A9006EB8EC12F0030E116E080E106E770EE87B
:1027B9002EFED7102EFCD7112EFAD70000120004D6
:1027C9000ED3EC11F001C040F002C041F0140E1319
:1027D9006EAE0E146E230E156E410E166E40C001BC
:1027E900F041C002F0036A046A000E53EC15F001CF
:1027F900C00FF002C010F003C011F004C012F02D98
:10280900EC16F00FC028F010C029F011C02AF01200
:10281900C02BF0D0EC14F028C03EF029C03FF03EA8
:10282900C001F03FC002F0046A0A0E036EEFEC1219
:10283900F00150300F4A6E3EC001F03FC002F00473
:102849006A0A0E036E1DEC12F00150300F4B6E4CEC
:102859006AC50E036E4A5038EC11F0C60E036E4B72
:102869005038EC11F0066A100E056E4A0E076E021A
:102879000E086EB8EC12F0030E336E080E326E7746
:102889000EE82EFED7322EFCD7332EFAD7000012CF
:1028990000819A818C818E81B255EF14F057EF1423
:1028A900F05AEF14F0010ECFEF14F081B45FEF147A
:1028B900F061EF14F064EF14F0040ECFEF14F0811F
:1028C900B669EF14F06BEF14F06EEF14F0070ECF4A
:1028D900EF14F081B873EF14F075EF14F078EF147A
:1028E900F00A0ECFEF14F0818A819C818E81B2802B
:1028F900EF14F082EF14F085EF14F0020ECFEF140D
:10290900F081B48AEF14F08CEF14F08FEF14F00516
:102919000ECFEF14F081B694EF14F096EF14F099FE
:10292900EF14F0080ECFEF14F081B89EEF14F0A069
:10293900EF14F0A3EF14F00B0ECFEF14F0818A819E
:102949008C819E81B2ABEF14F0ADEF14F0B0EF14AF
:10295900F0030ECFEF14F081B4B5EF14F0B7EF1414
:10296900F0BAEF14F0060ECFEF14F081B6BFEF14F2
:10297900F0C1EF14F0C4EF14F0090ECFEF14F08199
:10298900B8C9EF14F0CBEF14F0CEEF14F00C0ECF62
:10299900EF14F0FF0E12002A342B34316E3150D867
:1029A900A4D9EF14F0DBEF14F0E5EF14F0000E28D2
:1029B9006E000E296E000E2A6E000E2B6E52EF1558
:1029C900F028C02CF029C02DF02AC02EF02BC02FE2
:1029D900F0200EF5EF14F0D8902F322E322D322C34
:1029E90032E82EF0EF14F02C50306E2A8EFF0E28AC
:1029F90016FF0E2916FF0E2A16000E2B16960E31FB
:102A09005E31BE0CEF15F00AEF15F022EF15F0312B
:102A190050800A970FD8B014EF15F016EF15F0187B
:102A2900EF15F0DBEF14F0D8902B322A3229322837
:102A390032313E18EF15F03AEF15F01F0E316428C8
:102A4900EF15F02AEF15F032EF15F0DBEF14F0D89F
:102A590090283629362A362B3631063150D8A438F3
:102A6900EF15F03AEF15F02CEF15F03050D8B440CF
:102A7900EF15F042EF15F04AEF15F02B1E2A1E292B
:102A89001E286C000E29222A222B2228C028F02970
:102A9900C029F02AC02AF02BC02BF01200096E09B8
:102AA90050D8B45AEF15F05CEF15F07EEF15F0042D
:102AB900BE63EF15F061EF15F07EEF15F001C0056B
:102AC900F002C006F003C007F004C008F0051E06B6
:102AD9001E071E081E052A000E06220722082205C7
:102AE900C00BF006C00CF007C00DF008C00EF08650
:102AF900EF15F001C00BF002C00CF003C00DF0049B
:102B0900C00EF00150021003100410D8A48FEF1565
:102B1900F091EF15F09BEF15F0000E016E000E021B
:102B29006E000E036E000E046E2CEF16F0960E0A60
:102B39006EA5EF15F00A2AD8900E320D320C320B21
:102B490032000E0B14056E000E0C14066E000E0DED
:102B590014076EFE0E0E14086E05500610071008B5
:102B690010D8A4BAEF15F0BCEF15F09FEF15F0CA15
:102B7900EF15F00A2A010E0B26000E0C220D220E6B
:102B890022D8900E320D320C320B32000E0B140586
:102B99006E000E0C14066E000E0D14076EFF0E0E5D
:102BA90014086E0550061007100810D8A4DFEF1599
:102BB900F0E1EF15F0BEEF15F0E9EF15F00A06D8D0
:102BC900900B360C360D360E360DBEEEEF15F0F0C5
:102BD900EF15F0F8EF15F0020E0A60F6EF15F0F8B0
:102BE900EF15F0E3EF15F00AB0FDEF15F0FFEF1563
:102BF900F000EF16F00D9ED8900A320AC005F006D3
:102C09006A076A086A05C008F0076A066A056A055C
:102C1900500B1206500C1207500D1208500E1209D3
:102C290050D8B41AEF16F01CEF16F024EF16F00482
:102C3900BE23EF16F021EF16F024EF16F00E8E0BDF
:102C4900C001F00CC002F00DC003F00EC004F01278
:102C5900001250800B1F6E12501224266E11AE38CE
:102C6900EF16F03AEF16F03BEF16F026802650D813
:102C7900B441EF16F043EF16F057EF16F02628D8B7
:102C8900A449EF16F04BEF16F053EF16F0000E0FB4
:102C99006E000E106E000E116E000E126E118E1265
:102CA9006A5FEF16F0000E0F6E000E106E000E1127
:102CB9006E000E126E1650800B1F1A16501624271E
:102CC9006E15AE6AEF16F06CEF16F06DEF16F02781
:102CD900802750D8B473EF16F075EF16F089EF1608
:102CE900F02728D8A47BEF16F07DEF16F085EF16B4
:102CF900F0000E136E000E146E000E156E000E1607
:102D09006E158E166A91EF16F0000E136E000E14F2
:102D19006E000E156E000E166E1350141015101657
:102D290010D8A49AEF16F09CEF16F0B4EF16F00045
:102D39000E0F6E000E106E000E116E000E126E80D8
:102D49000E11127F0E12121F5012120FC00FF01027
:102D5900C010F011C011F012C012F0F3EF17F026F5
:102D690050D8A4BAEF16F0BCEF16F0C6EF16F00073
:102D79000E0F6E000E106E000E116E000E126EF325
:102D8900EF17F0275026C017F0186A175E000E18C3
:102D99005A7F0E1724206E000E1820216E0FC01BBB
:102DA900F010C01CF011C01DF012C01EF0000E0F73
:102DB9006E000E106E000E116E000E126E000E22C5
:102DC9006E000E236E000E246E000E256E276A26F5
:102DD900EF17F02750D8B4F4EF16F0F6EF16F00D10
:102DE900EF17F0D8901B361C361D361E36D8900FBB
:102DF9003610361136123625AE05EF17F007EF17E4
:102E0900F008EF17F00F80D89022362336243625A4
:102E19003613501B5C14501C5815501D5816501E63
:102E290058D8A01AEF17F01CEF17F025EF17F02567
:102E39008C13501B5E14501C5A15501D5A16501EE7
:102E49005A272A190E27642CEF17F02EEF17F0EEE8
:102E5900EF16F01B501C101D101E10D8B437EF17B9
:102E6900F039EF17F051EF17F0228051EF17F0D832
:102E7900900F3610361136123625AE46EF17F04848
:102E8900EF17F049EF17F00F80D890223623362438
:102E99003625362006D8A0210611AE56EF17F05870
:102EA900EF17F03CEF17F0276A25AE5EEF17F060D9
:102EB900EF17F084EF17F0FF0E2214176EFF0E23A1
:102EC90014186EFF0E2414196E7F0E25141A6E172E
:102ED90050181019101A10D8B475EF17F077EF17AA
:102EE900F07BEF17F0010E276E84EF17F00FA0802B
:102EF900EF17F082EF17F084EF17F077EF17F0274D
:102F090050D8B48AEF17F08CEF17F0B0EF17F00133
:102F19000E0F26000E10221122122212A097EF176F
:102F2900F099EF17F0B0EF17F00FC017F010C018B5
:102F3900F011C019F012C01AF01A341A32193218E5
:102F490032173217C00FF018C010F019C011F01A5B
:102F5900C012F0204A212A21BEBBEF17F0215008E8
:102F6900E12028D8A0BBEF17F0BDEF17F0C8EF1785
:102F7900F0000E216E2068000E0F6E000E106E001C
:102F89000E116E000E126E21BED5EF17F0215006FC
:102F9900E12004D8B0D3EF17F0D5EF17F0E1EF1720
:102FA900F0216A000E206E000E0F6E000E106E00EA
:102FB9000E116E000E126E1F6A20C026F026A0E8C0
:102FC900EF17F0EAEF17F0EDEF17F0118EEEEF17AC
:102FD900F0119ED8902630126EA8EF16F01200005C
:102FE9004745415220202020005350454544202088
:072FF900200000F6EF11F0CB
:020000040020DA
:08000000FFFFFFFFFFFFFFFF00
:020000040030CA
:0E000000FF071F1FFF8285FF0FC00FE00F409C
:00000001FF
