:0400000007EF00F016
:10000800018241ED01F031EF02F00750D96EDA6A52
:10001800DF50166E1650D8A414EF00F016EF00F05B
:1000280024EF00F0EF0E046E2F0E056ECD0E066E57
:100038000BEC01F081908192819C819E67EF00F02A
:100048001604D8A42AEF00F02CEF00F046EF00F0D9
:10005800F20E046E2F0E056ECD0E066E0BEC01F03F
:100068001750D8B43AEF00F03CEF00F040EF00F042
:100078008180818242EF00F081908192819C819EF3
:1000880067EF00F0020E1618D8A44DEF00F04FEFFE
:1000980000F067EF00F0F50E046E2F0E056ECD0E22
:1000A800066E0BEC01F01750D8B45DEF00F05FEF6F
:1000B80000F063EF00F0818C818E65EF00F0819C89
:1000C800819E819081921200200E0A6E180E0B6E8E
:1000D800220E0C6EC1EC00F02250D8A476EF00F08E
:1000E80078EF00F07AEF00F0C0EF00F0100E201863
:1000F8002110D8A482EF00F084EF00F08CEF00F01C
:10010800180E076E22C008F007EC02F0C0EF00F0EE
:10011800200E20182110D8A494EF00F096EF00F0DC
:100128009EEF00F0180E076E22C008F023EC02F0D4
:10013800C0EF00F0300E20182110D8A4A6EF00F070
:10014800A8EF00F0B0EF00F0180E076E22C008F01C
:1001580015EC02F0C0EF00F0500E20182110D8A4C2
:10016800B8EF00F0BAEF00F0C0EF00F0180E076E1D
:1001780022C008F009EC00F0120060AEC6EF00F0F3
:10018800C8EF00F006EF01F0B3EC01F00A50D96EA9
:10019800DA6A02C0DEFF03C0DDFF0C50D96EDA6AEE
:1001A80065CFDFFF660E106E0F0E116E136A000E1C
:1001B800126EEDEF00F012501024D96E135011207A
:1001C800DA6E0B501224E16EE26ADFCFE7FF124AC3
:1001D800132A0C50D96EDA6ADF500D6E0E6A0D5074
:1001E800125C1350800A0F6E0E50800A0F58D8A068
:1001F80000EF01F002EF01F0DFEF00F0609EA49045
:100208000AEF01F00C50D96EDA6ADF6A1200000EAC
:10021800026E0650D0EC01F028EF01F0010E026EDC
:1002280004C0F6FF05C0F7FFF86A050EF76403D0AF
:100238000800F55005D0F6CFE9FFF7CFEAFFEF50F9
:10024800D0EC01F0044A052A04C0F6FF05C0F7FF08
:10025800F86A050EF76403D00800F55005D0F6CF0C
:10026800E9FFF7CFEAFFEF500009D8A43EEF01F00D
:1002780040EF01F012EF01F012000600F2A447EF80
:1002880001F049EF01F06BEF01F0F294080ED6246B
:10029800D66E000ED720D76E144A152A200E145C8D
:1002A8004E0E1558D8A05BEF01F05DEF01F06BEF33
:1002B80001F0156A000E146E1750D8B466EF01F0FD
:1002C80069EF01F0010E6AEF01F0000E176E01925E
:1002D80011003EEC02F0F80E046E2F0E056E800E33
:1002E800066E0BEC01F0FB0E046E2F0E056E840EED
:1002F800066E0BEC01F0EB0E046E2F0E056E890EE8
:10030800066E0BEC01F0E70E046E2F0E056E8D0ED7
:10031800066E0BEC01F068EC00F06FEF01F007EFF0
:1003280000F0939493861F0E6F166F8E800E6E18D2
:10033800D8A4A1EF01F0A3EF01F09AEF01F0776ADA
:10034800E10E706E1B0E716E030E726E0D01D46B92
:100358001F0E6F166F50606A608A608C12006150C1
:10036800046E056AD89004360536D89004360536EA
:10037800D890043605366238E842070B070B066E3C
:10038800076A04500610086E05500710096E08C069
:1003980002F009C003F01200036E02B0D6EF01F0BC
:1003A800D9EF01F08282DAEF01F0829203C083FF75
:1003B80082848294958E828082928284829483BE83
:1003C800E8EF01F0EAEF01F0E1EF01F08290959E8D
:1003D8001200956A9450F80B946E8290000E026E8B
:1003E800020ED0EC01F0000E026E380ED0EC01F0D7
:1003F800000E026E0C0ED0EC01F0000E026E010E23
:10040800D0EC01F012000750D96EDA6A020ED92634
:10041800DF6A07C004F0056AC00E066E0BEC01F037
:1004280012000750D96EDA6A040ED926DF6A07C0AF
:1004380004F0056AC90E066E0BEC01F012000750B5
:10044800D96EDA6A020ED926DF6A07C004F0056A97
:10045800C40E066E0BEC01F0120000EE14F00F0E45
:10046800EE6AE806FDE101900192000EF86E0001C7
:100478006DEF01F0EDEC01F095EC01F053EC02F0BA
:10048800F28CF28E49EC02F01200D58CD59AD58EFA
:10049800D586D76A060ED66EF294F28A1200080E36
:0604A800936E816A120050
:102FE60000494E440052504D002020003C2D002D3B
:092FF6003E005350004752000058
:020000040020DA
:08000000FFFFFFFFFFFFFFFF00
:020000040030CA
:0E000000FF071F1FFF8285FF0FC00FE00F409C
:00000001FF
