:04000000FEEF17F008
:1006000000002B50800B346E2B502B243A6E2AAEF8
:100610000CEF03F00EEF03F00FEF03F03A803A50C7
:10062000D8B415EF03F017EF03F02AEF03F03A28E0
:10063000D8A41DEF03F01FEF03F027EF03F0000E27
:10064000286E000E296E000E2A6E000E2B6E2A8E6A
:1006500032EF03F0000E286E000E296E000E2A6E97
:10066000000E2B6E2F50800B341A2F502F24396E12
:100670002EAE3DEF03F03FEF03F040EF03F0398083
:100680003950D8B446EF03F048EF03F05BEF03F0C6
:100690003928D8A44EEF03F050EF03F058EF03F0E1
:1006A000000E2C6E000E2D6E000E2E6E000E2F6EA4
:1006B0002E8E63EF03F0000E2C6E000E2D6E000EDA
:1006C0002E6E000E2F6E3950D8B469EF03F06BEF29
:1006D00003F073EF03F03A50D8A471EF03F073EF17
:1006E00003F07DEF03F0000E286E000E296E000E61
:1006F0002A6E000E2B6E13EF05F02E502802F3CF5A
:100700003FF0F4CF40F03F50356E366A376A386AB2
:1007100040503B6E3C6A3D6A3E6A2D502902F3CF41
:100720003FF0F4CF40F03F503526000E36223722FE
:10073000382240503B26000E3C223D223E222C50C7
:100740002A02F3CF3FF0F4CF40F03F503526000EA1
:1007500036223722382240503B26000E3C223D22D2
:100760003E2237C038F036C037F035C036F0356A33
:100770002C502902F3CF3FF0F4CF40F03F50352604
:1007800040503622000E3722000E38222D5028020B
:10079000F3CF3FF0F4CF40F03F50352640503622A3
:1007A000000E3722000E382237C038F036C037F03E
:1007B00035C036F0356A2C502802F3CF3FF0F4CF25
:1007C00040F03F50352640503622000E3722000EB2
:1007D00038222E502902F3CF3FF0F4CF40F03F50A3
:1007E0003B2640503C22000E3D22000E3E222D5062
:1007F0002A02F3CF3FF0F4CF40F03F503B26405069
:100800003C22000E3D22000E3E222E502A02F3CF43
:100810003FF0F4CF40F03F50306E4050316E326ABE
:10082000336A32C033F031C032F030C031F0306A58
:1008300030503B2631503C2232503D2233503E2234
:1008400035C030F036C031F037C032F038C033F048
:10085000190E30EF04F0D890333232323132303268
:10086000E82E2BEF04F030503B2631503C22325022
:100870003D2233503E2237C038F036C037F035C005
:1008800036F0356A39503AC030F0316A3026000E01
:100890003122820E30243F6EFF0E3120406E66EF13
:1008A00004F0D8903B363C363D363E3638AE5BEFF2
:1008B00004F05DEF04F05EEF04F03B80D890353635
:1008C0003636373638363F06D8A040063DAE6BEF99
:1008D00004F06DEF04F051EF04F0396A38AE73EFB5
:1008E00004F075EF04F099EF04F0FF0E3514306E4C
:1008F000FF0E3614316EFF0E3714326E7F0E381431
:10090000336E3050311032103310D8B48AEF04F007
:100910008CEF04F090EF04F0010E396E99EF04F0C3
:100920003BA095EF04F097EF04F099EF04F08CEF03
:1009300004F03950D8B49FEF04F0A1EF04F0C5EFF4
:1009400004F0010E3B26000E3C223D223E223EA03A
:10095000ACEF04F0AEEF04F0C5EF04F03BC030F0B4
:100960003CC031F03DC032F03EC033F0333433325E
:1009700032323132303230C03BF031C03CF032C024
:100980003DF033C03EF03F4A402A40BED0EF04F075
:10099000405008E13F28D8A0D0EF04F0D2EF04F097
:1009A000DCEF04F0000E3B6E000E3C6E800E3D6EE0
:1009B0007F0E3E6E09EF05F040BEE9EF04F04050B7
:1009C00006E13F04D8B0E7EF04F0E9EF04F0F4EFFC
:1009D00004F0000E3B6E000E3C6E000E3D6E000EED
:1009E0003E6E346A09EF05F03FC03AF0FF0E3B1649
:1009F000FF0E3C167F0E3D16000E3E163AA003EF8A
:100A000005F005EF05F006EF05F03D8ED8903A3081
:100A10003E6E34503E123BC028F03CC029F03DC031
:100A20002AF03EC02BF012001250800B1F6E1250A5
:100A30001224266E11AE1FEF05F021EF05F022EF14
:100A400005F026802650D8B428EF05F02AEF05F0EF
:100A50003EEF05F02628D8A430EF05F032EF05F080
:100A60003AEF05F0000E0F6E000E106E000E116EC4
:100A7000000E126E118E126A46EF05F0000E0F6E18
:100A8000000E106E000E116E000E126E1650800BCE
:100A90001F1A16501624276E15AE51EF05F053EFAE
:100AA00005F054EF05F027802750D8B45AEF05F031
:100AB0005CEF05F070EF05F02728D8A462EF05F091
:100AC00064EF05F06CEF05F0000E136E000E146E6F
:100AD000000E156E000E166E158E166A78EF05F074
:100AE000000E136E000E146E000E156E000E166EC4
:100AF0001350141015101610D8A481EF05F083EFD1
:100B000005F09BEF05F0000E0F6E000E106E000E4C
:100B1000116E000E126E800E11127F0E12121F50F7
:100B200012120FC00FF010C010F011C011F012C05F
:100B300012F0DAEF06F02650D8A4A1EF05F0A3EFEB
:100B400005F0ADEF05F0000E0F6E000E106E000EFA
:100B5000116E000E126EDAEF06F0275026C017F065
:100B6000186A175E000E185A7F0E1724206E000EAA
:100B70001820216E0FC01BF010C01CF011C01DF01A
:100B800012C01EF0000E0F6E000E106E000E116EE1
:100B9000000E126E000E226E000E236E000E246EEA
:100BA000000E256E276A0DEF06F02750D8B4DBEF54
:100BB00005F0DDEF05F0F4EF05F0D8901B361C369C
:100BC0001D361E36D8900F3610361136123625AE29
:100BD000ECEF05F0EEEF05F0EFEF05F00F80D890A9
:100BE000223623362436253613501B5C14501C58ED
:100BF00015501D5816501E58D8A001EF06F003EFEF
:100C000006F00CEF06F0258C13501B5E14501C5A96
:100C100015501D5A16501E5A272A190E276413EF15
:100C200006F015EF06F0D5EF05F01B501C101D1057
:100C30001E10D8B41EEF06F020EF06F038EF06F0D5
:100C4000228038EF06F0D8900F3610361136123663
:100C500025AE2DEF06F02FEF06F030EF06F00F80F7
:100C6000D89022362336243625362006D8A02106F1
:100C700011AE3DEF06F03FEF06F023EF06F0276AD6
:100C800025AE45EF06F047EF06F06BEF06F0FF0EDE
:100C90002214176EFF0E2314186EFF0E2414196E03
:100CA0007F0E25141A6E1750181019101A10D8B488
:100CB0005CEF06F05EEF06F062EF06F0010E276EC5
:100CC0006BEF06F00FA067EF06F069EF06F06BEF31
:100CD00006F05EEF06F02750D8B471EF06F073EF20
:100CE00006F097EF06F0010E0F26000E10221122DB
:100CF000122212A07EEF06F080EF06F097EF06F0CA
:100D00000FC017F010C018F011C019F012C01AF07F
:100D10001A341A3219321832173217C00FF018C0AD
:100D200010F019C011F01AC012F0204A212A21BE79
:100D3000A2EF06F0215008E12028D8A0A2EF06F08B
:100D4000A4EF06F0AFEF06F0000E216E2068000E53
:100D50000F6E000E106E000E116E000E126E21BE90
:100D6000BCEF06F0215006E12004D8B0BAEF06F03F
:100D7000BCEF06F0C8EF06F0216A000E206E000EF0
:100D80000F6E000E106E000E116E000E126E1F6AB6
:100D900020C026F026A0CFEF06F0D1EF06F0D4EF6A
:100DA00006F0118ED5EF06F0119ED8902630126E07
:100DB0008FEF05F01200096E0950D8B4E2EF06F08B
:100DC000E4EF06F006EF07F004BEEBEF06F0E9EF04
:100DD00006F006EF07F001C005F002C006F003C000
:100DE00007F004C008F0051E061E071E081E052A8F
:100DF000000E06220722082205C00BF006C00CF0E8
:100E000007C00DF008C00EF00EEF07F001C00BF0A8
:100E100002C00CF003C00DF004C00EF0015002102F
:100E200003100410D8A417EF07F019EF07F023EF11
:100E300007F0000E016E000E026E000E036E000E33
:100E4000046EB4EF07F0960E0A6E2DEF07F00A2A33
:100E5000D8900E320D320C320B32000E0B14056E90
:100E6000000E0C14066E000E0D14076EFE0E0E140E
:100E7000086E0550061007100810D8A442EF07F0BE
:100E800044EF07F027EF07F052EF07F00A2A010EB0
:100E90000B26000E0C220D220E22D8900E320D329F
:100EA0000C320B32000E0B14056E000E0C14066E85
:100EB000000E0D14076EFF0E0E14086E055006107E
:100EC00007100810D8A467EF07F069EF07F046EFA6
:100ED00007F071EF07F00A06D8900B360C360D3686
:100EE0000E360DBE76EF07F078EF07F080EF07F0D3
:100EF000020E0A607EEF07F080EF07F06BEF07F05D
:100F00000AB085EF07F087EF07F088EF07F00D9E36
:100F1000D8900A320AC005F0066A076A086A05C056
:100F200008F0076A066A056A05500B1206500C1293
:100F300007500D1208500E120950D8B4A2EF07F056
:100F4000A4EF07F0ACEF07F004BEABEF07F0A9EF9A
:100F500007F0ACEF07F00E8E0BC001F00CC002F0F2
:100F60000DC003F00EC004F01200040E92EC0AF063
:100F700001C051F002C052F0000E2C6E000E2D6E1A
:100F8000700E2E6E420E2F6E140E136EAE0E146E79
:100F9000230E156E410E166E51C001F052C002F0C4
:100FA000036A046A000EDBEC06F001C00FF002C019
:100FB00010F003C011F004C012F014EC05F00FC0E3
:100FC00028F010C029F011C02AF012C02BF001EC5B
:100FD00003F028C041F029C042F02AC043F02BC0E2
:100FE00044F06DEC08F041C04FF042C050F04FC0EB
:100FF00001F050C002F0030E046EE80E036E93EC95
:1010000009F00150300F0001676F046A640E036E2F
:101010004FC001F050C002F093EC09F001C008F09D
:1010200002C009F00B6A0A0E0A6E35EC0AF008508D
:10103000300F0001686F046A0A0E036E4FC001F0A2
:1010400050C002F093EC09F001C008F002C009F0B2
:101050000B6A0A0E0A6E35EC0AF00850300F0001D8
:10106000696F4FC008F050C009F00B6A0A0E0A6E93
:1010700035EC0AF00850300F00016A6F066A300E36
:10108000056E670E076E040E086ECCEC09F0030EB9
:101090004C6E080E4B6E770EE82EFED74B2EFCD70B
:1010A0004C2EFAD7000040C06CF000016151400F97
:1010B000D96EDA6ADF506D6F6251400FD96EDA6A0D
:1010C000DF506E6F6351400FD96EDA6ADF506F6F79
:1010D0006C0E016E03EC0AF01200433444344A6E85
:1010E0004A50D8A476EF08F078EF08F082EF08F0C5
:1010F000000E416E000E426E000E436E000E446EF6
:10110000EFEF08F041C045F042C046F043C047F061
:1011100044C048F0200E92EF08F0D8904832473291
:1011200046324532E82E8DEF08F04550496E438E29
:10113000FF0E4116FF0E4216FF0E4316000E441618
:10114000960E4A5E4ABEA9EF08F0A7EF08F0BFEF7F
:1011500008F04A50800A970FD8B0B1EF08F0B3EF0B
:1011600008F0B5EF08F078EF08F0D8904432433239
:10117000423241324A3EB5EF08F0D7EF08F01F0E79
:101180004A64C5EF08F0C7EF08F0CFEF08F078EF3A
:1011900008F0D89041364236433644364A064A5023
:1011A000D8A4D5EF08F0D7EF08F0C9EF08F0495000
:1011B000D8B4DDEF08F0DFEF08F0E7EF08F0441EE9
:1011C000431E421E416C000E42224322442241C073
:1011D00041F042C042F043C043F044C044F012002A
:1011E000010E59EC09F05C6E0E0E5C18D8A4FBEFF2
:1011F00008F0FDEF08F001EF09F0010E586E18EF4E
:1012000009F00D0E5C18D8A408EF09F00AEF09F0F8
:101210000DEF09F0586A18EF09F00B0E5C18D8A40E
:1012200014EF09F016EF09F018EF09F0020E586EEE
:101230005804D8A41EEF09F020EF09F026EF09F0BA
:1012400081808182819C819E41EF09F05850D8A411
:101250002CEF09F02EEF09F034EF09F08190819224
:10126000819C819E41EF09F0020E5818D8A43BEFF3
:1012700009F03DEF09F041EF09F081908192818CF6
:10128000818E58C05DF0066A500E056E5D0E076EC9
:10129000010E086ECCEC09F0030E116E080E106EF4
:1012A000770EE82EFED7102EFCD7112EFAD70000AD
:1012B0001200016E0104D8A460EF09F062EF09F09A
:1012C00087EF09F082500F0B0F0AD8B46AEF09F0CC
:1012D0006CEF09F079EF09F05F50D8B472EF09F0C4
:1012E00074EF09F079EF09F05F6A82500F0B92EF0B
:1012F00009F082500F0B0F0AD8A481EF09F083EF99
:1013000009F091EF09F0010E5F6E91EF09F00150C5
:10131000D8A48DEF09F08FEF09F091EF09F075EF88
:1013200009F0FF0E1200066A000E056E035004104D
:10133000D8B49DEF09F09FEF09F0C7EF09F0010E57
:10134000076EA7EF09F0D89003360436072A04AEDB
:10135000ACEF09F0AEEF09F0A3EF09F0D890053635
:1013600006360350015C04500258D8A0BAEF09F0C9
:10137000BCEF09F0C1EF09F00350015E0450025ABE
:101380000580D89004320332072EAEEF09F005C075
:1013900001F006C002F012000F01436B446B05C060
:1013A00001F006C002F0D3EC0AF008C045FF460E7B
:1013B0000C6E0F0E0D6E0F6A000E0E6EEEEF09F042
:1013C00007500E24D96EDA6A0E500C24E16E0F50CD
:1013D0000D20E26EDFCFE7FF0E4A0F2A0850096E9C
:1013E0000A6A09500E5C0F50800A0B6E0A50800A80
:1013F0000B58D8A0FEEF09F000EF0AF0E0EF09F07B
:101400000F0140871200066A01500624D96EDA6A7D
:10141000DF50836E06C002F0010E036E022A13EF46
:101420000AF0D8900336022E11EF0AF08050F00B2C
:101430000310806E030E056EE80E046E0406D8A03D
:101440000506042806E10528D8A429EF0AF02BEFA9
:101450000AF01EEF0AF0062A030E066432EF0AF0C5
:1014600034EF0AF004EF0AF012000A500B10D8B45F
:101470003CEF0AF03EEF0AF062EF0AF0010E0C6E4C
:1014800046EF0AF0D8900A360B360C2A0BAE4BEF1B
:101490000AF04DEF0AF042EF0AF00A50085C0B50D8
:1014A0000958D8A056EF0AF058EF0AF05CEF0AF09E
:1014B0000A50085E0B50095AD8900B320A320C2E93
:1014C0004DEF0AF008C008F009C009F01200380E0C
:1014D000F66E160EF76E000EF86E00EE70F010EE5F
:1014E0000AF00900F5CFEEFFE550E150FAE1540EA5
:1014F000F66E160EF76E000EF86E0900F5CF5EF070
:101500000900F5CF5FF000EE60F0100EEE6AE8061D
:10151000FDE100EE4DF0110EEE6AE806FDE100017E
:101520000AEF0BF0076E07C003F0D8900336D8908F
:101530000336C250C30B0310C26EC282C2B2A3EF05
:101540000AF0A5EF0AF09EEF0AF0C350C4CF03F0F3
:10155000046A03C004F0036A0310056E0450066EAB
:1015600005C001F006C002F01200939493861F0E8E
:101570006F166F8E800E6E18D8A4C1EF0AF0C3EFFD
:101580000AF0BAEF0AF0776AE10E706E1B0E716E08
:10159000030E726E0D01D46B1F0E6F166F50606AD2
:1015A000608A608C120001C003F0070E0316050E5E
:1015B000046ED8900336042ED9EF0AF003500F01C1
:1015C000426F01C003F002C004F0D890043203322D
:1015D000D89004320332D890043203320350416F62
:1015E0001200C08EC09AC088C096C090C082C094BD
:1015F000C292C19AC198C46AC36AC2801200F1EC57
:101600000AF014EC0BF021EC0BF026EC0BF0B5EC2F
:101610000AF01200FFEC0AF0B5EC07F0F0EC08F06D
:101620000CEF0BF0FEEF17F0956A9250F00B926EF4
:101630008050F00B806E1200E721CB6B2D6EEE23F5
:10164000EF6F93909392939C939E120094500F0986
:06165000946E120001017E
:042FFC0067EF0AF081
:020000040020DA
:08000000FFFFFFFFFFFFFFFF00
:020000040030CA
:0E000000FF071F1FFF8285FF0FC00FE00F409C
:00000001FF
